:020000040000FA
:0400000097EF3FF047
:107F2E0000019AEF3FF0720ED36E000E936E000EAC
:107F3E00086E000E076EBFEF3FF08A68060E026EE7
:107F4E00130E016EAE0EE82EFED7012EFCD7022EBA
:107F5E00FAD7000E8A6E060E026E130E016EAE0E6C
:107F6E00E82EFED7012EFCD7022EFAD7074A082A92
:107F7E0008BECBEF3FF0085009E1060E075CD8A013
:107F8E00CBEF3FF0CDEF3FF0A4EF3FF0000E0A6EC7
:107F9E00000E096EEEEF3FF08A680B0E026E260E93
:107FAE00016E5E0EE82EFED7012EFCD7022EFAD7FA
:107FBE00000E8A6E0B0E026E260E016E5E0EE82EFF
:107FCE00FED7012EFCD7022EFAD7094A0A2A0ABE7C
:107FDE00FAEF3FF00A5009E1030E095CD8A0FAEF60
:107FEE003FF0FCEF3FF0D3EF3FF09EEF3FF000EF9E
:027FFE0000F091
:020000040020DA
:08000000FFFFFFFFFFFFFFFF00
:020000040030CA
:0E0000000008191EFF0085FF0FC00FE00F4023
:00000001FF
